S01800004156525F41546D65676133325F53444B2E73726563EF
S11300000C942A000C94C7020C94F0020C9419036B
S11300100C9447000C9447000C9447000C94470040
S11300200C9447000C94BB030C9447000C94E40319
S11300300C9447000C9447000C9447000C94470020
S11300400C9447000C9447000C9447000C94470010
S11300500C94470011241FBECFE5D8E0DEBFCDBF0E
S113006010E0A0E6B0E0E0EFF8E002C005900D92E9
S1130070A438B107D9F720E0A4E8B0E001C01D928C
S1130080AE38B207E1F70E945B010C9476040C943D
S11300900000CF93C82F60E080E00E94450260E03A
S11300A081E00E944502C4FB662760F984E00E9457
S11300B04502C5FB662760F985E00E944502C6FB40
S11300C0662760F986E00E9445026C2F661F66274A
S11300D0661F87E00E94450261E082E00E944502BB
S11300E08FE99FE00197F1F700C0000060E082E033
S11300F00E9445028FE99FE00197F1F700C00000DC
S11301006C2F617084E00E944502C1FB662760F990
S113011085E00E944502C2FB662760F986E00E94E2
S11301204502C3FB662760F987E00E94450261E04F
S113013082E00E9445028FE99FE00197F1F700C039
S1130140000060E082E00E9445028FE99FE0019791
S1130150F1F700C00000CF910895CF93C82F61E05C
S113016080E00E94450260E081E00E944502C4FBF9
S1130170662760F984E00E944502C5FB662760F9A2
S113018085E00E944502C6FB662760F986E00E946E
S113019045026C2F661F6627661F87E00E94450292
S11301A061E082E00E9445028FE99FE00197F1F748
S11301B000C0000060E082E00E9445028FE99FE0F9
S11301C00197F1F700C000006C2F617084E00E9479
S11301D04502C1FB662760F985E00E944502C2FB27
S11301E0662760F986E00E944502C3FB662760F932
S11301F087E00E94450261E082E00E9445028FE9A7
S11302009FE00197F1F700C0000060E082E00E94E7
S113021045028FE99FE00197F1F700C00000CF91FC
S113022008952FE788E391E0215080409040E1F762
S113023000C0000082E00E9449008FEC97E0019723
S1130240F1F700C0000088E20E9449008FEC97E0BB
S11302500197F1F700C000008CE00E9449008FEC88
S113026097E00197F1F700C0000081E00E94490087
S11302708FE39CE90197F1F700C0000086E00E943B
S1130280490080E80E94490008950F931F93CF937B
S1130290FC018081882359F08F01C0E00E94AD00E9
S11302A0CF5FF801EC0FF11D80818111F7CFCF9161
S11302B01F910F9108950E946E010E94110180E622
S11302C090E00E9445010E940D0480E593EC0E9499
S11302D0140484E190E00E942A04FFCFE4E6F0E0F5
S11302E080E041E050E09191282F269526952695AF
S11302F0382F37709130C9F120F0923009F47DC065
S1130300BFC0213089F028F02230C9F0233011F128
S1130310B7C09AB3BA0102C0660F771F3A95E2F7E5
S11303209B01292B2ABBACC097B3BA0102C0660F4C
S1130330771F3A95E2F79B01292B27BBA1C094B301
S1130340BA0102C0660F771F3A95E2F79B01292B89
S113035024BB96C091B3BA0102C0660F771F3A95C9
S1130360E2F79B01292B21BB8BC02130B1F028F08F
S1130370223019F1233089F183C09AB3BA0102C043
S1130380660F771F3A95E2F79B01362F309593233A
S11303909ABB9BB3292B2BBB73C097B3BA0102C082
S11303A0660F771F3A95E2F79B01362F309593231A
S11303B097BB98B3292B28BB63C094B3BA0102C07E
S11303C0660F771F3A95E2F79B01362F30959323FA
S11303D094BB95B3292B25BB53C091B3BA0102C07A
S11303E0660F771F3A95E2F79B01362F30959323DA
S11303F091BB92B3292B22BB43C02130A9F028F032
S1130400223009F1233071F13BC09AB3BA0102C022
S1130410660F771F3A95E2F79B01209592239ABBCA
S11304209BB329232BBB2CC097B3BA0102C0660F20
S1130430771F3A95E2F79B012095922397BB98B3D7
S1130440292328BB1DC094B3BA0102C0660F771FCD
S11304503A95E2F79B012095922394BB95B3292307
S113046025BB0EC091B3BA0102C0660F771F3A953F
S1130470E2F79B012095922391BB92B3292322BBDF
S11304808F5F803209F02FCF0895982F977086954B
S113049086958695813021F130F08230F1F18330F8
S11304A009F458C00895613069F44BB321E030E099
S11304B0B90102C0660F771F9A95E2F7CB01842B2E
S11304C08BBB08954BB321E030E0B90102C0660F45
S11304D0771F9A95E2F7CB01809584238BBB08950F
S11304E0613069F448B321E030E0B90102C0660F1D
S11304F0771F9A95E2F7CB01842B88BB089548B304
S113050021E030E0B90102C0660F771F9A95E2F747
S1130510CB018095842388BB0895613069F445B389
S113052021E030E0B90102C0660F771F9A95E2F727
S1130530CB01842B85BB089545B321E030E0B9019C
S113054002C0660F771F9A95E2F7CB01809584234A
S113055085BB0895613069F442B321E030E0B9010C
S113056002C0660F771F9A95E2F7CB01842B82BBFA
S1130570089542B321E030E0B90102C0660F771F4D
S11305809A95E2F7CB018095842382BB08951F924C
S11305900F920FB60F9211242F933F934F935F93B3
S11305A06F937F938F939F93AF93BF93EF93FF9337
S11305B0E0918800F0918900309709F00995FF9146
S11305C0EF91BF91AF919F918F917F916F915F91C7
S11305D04F913F912F910F900FBE0F901F90189540
S11305E01F920F920FB60F9211242F933F934F93A4
S11305F05F936F937F938F939F93AF93BF93EF9387
S1130600FF93E0918600F0918700309709F00995F7
S1130610FF91EF91BF91AF919F918F917F916F91D6
S11306205F914F913F912F910F900FBE0F901F90AC
S113063018951F920F920FB60F9211242F933F9388
S11306404F935F936F937F938F939F93AF93BF93D6
S1130650EF93FF93E0918400F0918500309709F0C7
S11306600995FF91EF91BF91AF919F918F917F91E8
S11306706F915F914F913F912F910F900FBE0F900B
S11306801F901895813089F018F08230D9F026C077
S11306908FB58E7F8FBD8FB58D7F8FBD8EB5877FD4
S11306A08EBD8EB58F7E8EBD19C08FB58E7F8FBDEA
S11306B08FB582608FBD8EB588608EBD8EB580612A
S11306C08EBD0CC08FB581608FBD8FB582608FBD2C
S11306D08EB588608EBD8EB580618EBD8EB5887FE7
S11306E08EBD8EB5682B6EBD413069F028F0423066
S11306F081F04330A1F019C08FB58F7B8FBD8FB5CA
S11307008F778FBD12C08FB580648FBD8FB58F7703
S11307108FBD8FB58F7B8FBD8FB580688FBD8FB533
S113072080648FBD8FB580688FBD81B381BB81B379
S113073081BB213069F028F0223081F02330A1F010
S113074008958FB58F7E8FBD8FB58F7D8FBD089532
S11307508FB580618FBD8FB58F7D8FBD8FB58F7E37
S11307608FBD8FB580628FBD8FB580618FBD8FB512
S113077080628FBD08951F920F920FB60F921124BD
S11307802F933F934F935F936F937F938F939F9395
S1130790AF93BF93EF93FF93E0918C00F0918D00A2
S11307A0309709F00995FF91EF91BF91AF919F9117
S11307B08F917F916F915F914F913F912F910F9006
S11307C00FBE0F901F9018951F920F920FB60F92A5
S11307D011242F933F934F935F936F937F938F9342
S11307E09F93AF93BF93EF93FF93E0918A00F091AF
S11307F08B00309709F00995FF91EF91BF91AF916C
S11308009F918F917F916F915F914F913F912F9124
S11308100F900FBE0F901F90189520E042E062E009
S113082081E00E9442030895009799F09C0140E002
S113083050E060E472E48FE090E00E9445042115EA
S1130840310529F02150310937BD26BD089517BC63
S113085016BC089585369105B8F426B537B52F5FD3
S11308603F4FDC010E94670424E630E040E050E0A2
S11308700E9445042230310528F0215031093BBD46
S11308802ABD08951BBC1ABC0895A1E21A2EAA1B06
S1130890BB1BFD010DC0AA1FBB1FEE1FFF1FA2172C
S11308A0B307E407F50720F0A21BB30BE40BF50B29
S11308B0661F771F881F991F1A9469F760957095B2
S11308C0809590959B01AC01BD01CF010895A29F35
S11308D0B001B39FC001A39F700D811D1124911D10
S11308E0B29F700D811D1124911D0895F894FFCFBE
S11308F050574D0000000000000000000000000000
S113090000000000000000000000000000000001E2
S107091000000000DF
S9030000FC
